{
  "contractName": "ChequeVerification",
  "abi": [
    {
      "anonymous": false,
      "inputs": [
        {
          "indexed": false,
          "internalType": "uint256",
          "name": "chequeId",
          "type": "uint256"
        }
      ],
      "name": "ChequeCleared",
      "type": "event"
    },
    {
      "anonymous": false,
      "inputs": [
        {
          "indexed": false,
          "internalType": "uint256",
          "name": "chequeId",
          "type": "uint256"
        },
        {
          "indexed": true,
          "internalType": "address",
          "name": "issuer",
          "type": "address"
        },
        {
          "indexed": true,
          "internalType": "address",
          "name": "receiver",
          "type": "address"
        },
        {
          "indexed": false,
          "internalType": "uint256",
          "name": "amount",
          "type": "uint256"
        }
      ],
      "name": "ChequeIssued",
      "type": "event"
    },
    {
      "constant": true,
      "inputs": [],
      "name": "chequeCount",
      "outputs": [
        {
          "internalType": "uint256",
          "name": "",
          "type": "uint256"
        }
      ],
      "payable": false,
      "stateMutability": "view",
      "type": "function"
    },
    {
      "constant": true,
      "inputs": [
        {
          "internalType": "uint256",
          "name": "",
          "type": "uint256"
        }
      ],
      "name": "cheques",
      "outputs": [
        {
          "internalType": "address",
          "name": "issuer",
          "type": "address"
        },
        {
          "internalType": "address",
          "name": "receiver",
          "type": "address"
        },
        {
          "internalType": "uint256",
          "name": "amount",
          "type": "uint256"
        },
        {
          "internalType": "bool",
          "name": "cleared",
          "type": "bool"
        }
      ],
      "payable": false,
      "stateMutability": "view",
      "type": "function"
    },
    {
      "constant": false,
      "inputs": [
        {
          "internalType": "address",
          "name": "_receiver",
          "type": "address"
        },
        {
          "internalType": "uint256",
          "name": "_amount",
          "type": "uint256"
        }
      ],
      "name": "issueCheque",
      "outputs": [
        {
          "internalType": "uint256",
          "name": "",
          "type": "uint256"
        }
      ],
      "payable": false,
      "stateMutability": "nonpayable",
      "type": "function"
    },
    {
      "constant": false,
      "inputs": [
        {
          "internalType": "uint256",
          "name": "_chequeId",
          "type": "uint256"
        }
      ],
      "name": "clearCheque",
      "outputs": [],
      "payable": false,
      "stateMutability": "nonpayable",
      "type": "function"
    }
  ],
  "bytecode": "0x608060405234801561001057600080fd5b506105cf806100206000396000f3fe608060405234801561001057600080fd5b506004361061004c5760003560e01c80630e7177e1146100515780631a4d82c0146100b35780633370e553146100d157806351208fe4146100ff575b600080fd5b61009d6004803603604081101561006757600080fd5b81019080803573ffffffffffffffffffffffffffffffffffffffff169060200190929190803590602001909291905050506101b2565b6040518082815260200191505060405180910390f35b6100bb61035e565b6040518082815260200191505060405180910390f35b6100fd600480360360208110156100e757600080fd5b8101908080359060200190929190505050610364565b005b61012b6004803603602081101561011557600080fd5b810190808035906020019092919050505061051d565b604051808573ffffffffffffffffffffffffffffffffffffffff1673ffffffffffffffffffffffffffffffffffffffff1681526020018473ffffffffffffffffffffffffffffffffffffffff1673ffffffffffffffffffffffffffffffffffffffff1681526020018381526020018215151515815260200194505050505060405180910390f35b6000806000815480929190600101919050555060405180608001604052803373ffffffffffffffffffffffffffffffffffffffff1681526020018473ffffffffffffffffffffffffffffffffffffffff16815260200183815260200160001515815250600160008054815260200190815260200160002060008201518160000160006101000a81548173ffffffffffffffffffffffffffffffffffffffff021916908373ffffffffffffffffffffffffffffffffffffffff16021790555060208201518160010160006101000a81548173ffffffffffffffffffffffffffffffffffffffff021916908373ffffffffffffffffffffffffffffffffffffffff1602179055506040820151816002015560608201518160030160006101000a81548160ff0219169083151502179055509050508273ffffffffffffffffffffffffffffffffffffffff163373ffffffffffffffffffffffffffffffffffffffff167fa113983de0ef44e8261e4413f69c10d91a790771b774af9684476efc0b9814d560005485604051808381526020018281526020019250505060405180910390a3600054905092915050565b60005481565b60006001600083815260200190815260200160002090508060010160009054906101000a900473ffffffffffffffffffffffffffffffffffffffff1673ffffffffffffffffffffffffffffffffffffffff163373ffffffffffffffffffffffffffffffffffffffff1614610440576040517f08c379a00000000000000000000000000000000000000000000000000000000081526004018080602001828103825260178152602001807f4f6e6c792072656365697665722063616e20636c65617200000000000000000081525060200191505060405180910390fd5b8060030160009054906101000a900460ff16156104c5576040517f08c379a000000000000000000000000000000000000000000000000000000000815260040180806020018281038252600f8152602001807f416c726561647920636c6561726564000000000000000000000000000000000081525060200191505060405180910390fd5b60018160030160006101000a81548160ff0219169083151502179055507fe0970e775c933952c8216f581ad63d593a977dbd4a03cd29db51f04221ffc4d4826040518082815260200191505060405180910390a15050565b60016020528060005260406000206000915090508060000160009054906101000a900473ffffffffffffffffffffffffffffffffffffffff16908060010160009054906101000a900473ffffffffffffffffffffffffffffffffffffffff16908060020154908060030160009054906101000a900460ff1690508456fea265627a7a723158200b93048fe0568357f8660e000b64fa3606f0bee309ddbc0c83003c1992123b3464736f6c63430005100032",
  "source": "// SPDX-License-Identifier: MIT\npragma solidity ^0.5.16;\n\ncontract ChequeVerification {\n    struct Cheque {\n        address issuer;\n        address receiver;\n        uint256 amount;\n        bool cleared;\n    }\n\n    uint256 public chequeCount;\n    mapping(uint256 => Cheque) public cheques;\n\n    event ChequeIssued(uint256 chequeId, address indexed issuer, address indexed receiver, uint256 amount);\n    event ChequeCleared(uint256 chequeId);\n\n    function issueCheque(address _receiver, uint256 _amount) public returns (uint256) {\n        chequeCount++;\n        cheques[chequeCount] = Cheque(msg.sender, _receiver, _amount, false);\n        emit ChequeIssued(chequeCount, msg.sender, _receiver, _amount);\n        return chequeCount;\n    }\n\n    function clearCheque(uint256 _chequeId) public {\n        Cheque storage c = cheques[_chequeId];\n        require(msg.sender == c.receiver, \"Only receiver can clear\");\n        require(!c.cleared, \"Already cleared\");\n        c.cleared = true;\n        emit ChequeCleared(_chequeId);\n    }\n}\n",
  "sourcePath": "C:\\Users\\monic\\OneDrive\\Desktop\\blockchain2\\cheque-project\\contracts\\ChequeVerification.sol",
  "compiler": {
    "name": "solc",
    "version": "0.5.16+commit.9c3226ce.Emscripten.clang"
  },
  "schemaVersion": "3.4.16",
  "updatedAt": "2025-11-02T16:05:12.585Z",
  "networkType": "ethereum",
  "devdoc": {
    "methods": {}
  },
  "userdoc": {
    "methods": {}
  }
}